:100000000C942A000C9447000C9447000C94470071
:100010000C9447000C9447000C9447000C94470044
:100020000C9447000C9447000C9447000C94470034
:100030000C9447000C9447000C9447000C94470024
:100040000C9447000C9447000C9447000C94470014
:100050000C94470011241FBECFE5D8E0DEBFCDBF12
:1000600011E0A0E6B0E0EAE8F8E002C005900D92E9
:10007000AA32B107D9F711E0AAE2B1E001C01D929E
:10008000A933B107E1F70E941E030C9443040C94BA
:100090000000DF93CF930F92CDB7DEB782E0898364
:1000A00028C08981992787FD90958F5C9E4FFC0120
:1000B00080819AE0692F0E943704805D0E94DE03F0
:1000C0008981992787FD90958F5C9E4FFC018081E7
:1000D0009AE0692F0E943704892F805D0E94DE0319
:1000E000898118161CF48AE30E94DE0389818150FD
:1000F000898389818823ACF68AE890E00E941904FC
:1001000080913801882329F48EE890E00E94190438
:1001100008C080913801882321F081E990E00E9495
:1001200019048AE890E00E94190480913401882F14
:1001300090E00197880F991F84589F4FFC018081A0
:1001400091810E9419048AE890E00E94190481E0DC
:10015000898328C08981992787FD90958C5C9E4F63
:10016000FC0180819AE0692F0E943704805D0E9423
:10017000DE038981992787FD90958C5C9E4FFC0159
:1001800080819AE0692F0E943704892F805D0E9448
:10019000DE03898183301CF48AE30E94DE038981B7
:1001A0008F5F898389818430ACF284E990E00E947A
:1001B00019040F90CF91DF910895DF93CF930F92A1
:1001C000CDB7DEB7198222C08981882F90E02981BE
:1001D000222F30E02C5C3E4FF901208122952F70B8
:1001E000220F322F330F330F422F430F2981222F3B
:1001F00030E02C5C3E4FF90120812F70240F8C5C85
:100200009E4FFC01208389818F5F8983898184309F
:10021000D8F20E9449000F90CF91DF910895DF93AB
:10022000CF930F92CDB7DEB7198286C08981823015
:1002300000F58981882F90E02981222F30E02F5C02
:100240003E4FF901208122952F70220F322F330F5C
:10025000330F422F430F2981222F30E02F5C3E4F76
:10026000F90120812F70240F8F5C9E4FFC012083A9
:1002700060C08981882F90E08F5C9E4FFC01808157
:10028000882F90E0807490700097A1F18981882F69
:1002900090E08F5C9E4FFC018081882F90E08072FF
:1002A0009070009719F01092380103C081E080939C
:1002B00038018981882F90E02981222F30E02F5C3E
:1002C0003E4FF901208122952F702170220F322F8D
:1002D000330F330F422F430F2981222F30E02F5C41
:1002E0003E4FF90120812F70240F8F5C9E4FFC013F
:1002F00020831FC08981882F90E02981222F30E040
:100300002F5C3E4FF901208122952F70220F322F52
:10031000330F330F422F430F2981222F30E02F5C00
:100320003E4FF90120812F70240F8F5C9E4FFC01FE
:10033000208389818F5F89838981833008F476CF18
:100340000E94DD000F90CF91DF910895DF93CF934E
:10035000CDB7DEB780ED0E949E0380E00E949E0331
:10036000CF91DF910895DF93CF93CDB7DEB70E9491
:100370007F030E94A6010E947F0381ED0E949E03DD
:10038000CF91DF910895DF93CF9300D00F92CDB737
:10039000DEB787E990E00E9419040E940304898374
:1003A0008981882F90E08133910521F08233910576
:1003B000C9F159C088EB90E00E9419040E9403041F
:1003C00080538A838A818295807F80932C010E944A
:1003D000030480538A8390912C018A81892B809316
:1003E0002C0180912C018F7480932C0183EC90E080
:1003F0000E9419040E9403048B838B81813329F4AA
:1004000080912C01806480932C018B81823329F4AC
:1004100080912C01806680932C0180912C010E9498
:100420009E0321C088EB90E00E9419040E940304FF
:1004300080538A838A818295807F80932C010E94D9
:10044000030480538A8390912C018A81892B8093A5
:100450002C0180912C018F7380932C0180912C01B1
:100460000E949E0300000F900F900F90CF91DF919C
:100470000895DF93CF9300D0CDB7DEB7198237C090
:100480008981823031F40E94C30189818F5F898321
:100490002EC00E94030480538A838981882F90E0B4
:1004A0002A812295207F865D9E4FFC0120830E9439
:1004B000030480538A838981882F90E02981222F29
:1004C00030E0265D3E4FF90130812A81232B865D85
:1004D0009E4FFC0120838981882F90E0865D9E4F8E
:1004E000FC0180810E949E0389818F5F89838981BD
:1004F000833030F20F900F90CF91DF910895DF930A
:10050000CF9300D0CDB7DEB719822EC00E9403046E
:1005100080538A838981882F90E02A812295207FC9
:10052000835D9E4FFC0120830E94030480538A83D5
:100530008981882F90E02981222F30E0235D3E4F72
:10054000F90130812A81232B835D9E4FFC0120839A
:100550008981882F90E0835D9E4FFC0180810E94FD
:100560009E0389818F5F89838981843078F20F901F
:100570000F90CF91DF9108950F931F93DF93CF9347
:100580000F92CDB7DEB719821DC08981833061F427
:100590008981082F10E00E946403282FC8018C5C19
:1005A0009E4FFC0120830BC08981082F10E00E9420
:1005B0004903282FC8018C5C9E4FFC012083898150
:1005C0008F5F89838981843000F30E940F010F902F
:1005D000CF91DF911F910F9108950F931F93DF9398
:1005E000CF930F92CDB7DEB719821DC089818230BB
:1005F00061F48981082F10E00E944903282FC80167
:100600008F5C9E4FFC0120830BC08981082F10E076
:100610000E944903282FC8018F5C9E4FFC01208354
:1006200089818F5F89838981833000F30E94BC02B6
:100630000F90CF91DF911F910F910895DF93CF938A
:10064000CDB7DEB70E943D030E94B9030E947F032D
:100650000E94A6018AED90E00E9419040E943902CE
:1006600083E091E00E9419040E947F020E9492039D
:100670000E94B3010E94ED02F9CFDF93CF93CDB773
:10068000DEB780E290E020E2FC012083CF91DF9191
:100690000895DF93CF930F92CDB7DEB786E590E054
:1006A00024ECFC012083000086E590E0FC018081C1
:1006B0008823D4F783E290E0FC01808189838981DB
:1006C0000F90CF91DF910895DF93CF930F92CDB725
:1006D000DEB786E590E024E8FC012083000086E593
:1006E00090E0FC0180818823D4F783E290E0FC0154
:1006F0008081898389810F90CF91DF910895DF9365
:10070000CF93CDB7DEB786E590E024EAFC012083E5
:10071000000086E590E0FC0180818823D4F7CF912A
:10072000DF910895DF93CF93CDB7DEB786E590E0F4
:1007300024E9FC012083CF91DF910895DF93CF93CB
:100740000F92CDB7DEB7898383E290E02981FC0167
:10075000208386E590E024E8FC012083000086E504
:1007600090E0FC0180818823D4F70F90CF91DF9136
:100770000895DF93CF9300D0CDB7DEB787E690E042
:100780009A83898389E290E02981FC01208380E4B7
:1007900090E029813A81232F3327FC0120838AE2CC
:1007A00090E028E1FC01208380E490E026E8FC0151
:1007B00020830F900F90CF91DF910895DF93CF9317
:1007C0000F92CDB7DEB7898300008BE290E0FC0189
:1007D0008081882F90E0807290700097B1F38CE256
:1007E00090E02981FC01208300008BE290E0FC0175
:1007F0008081882F90E0807490700097B1F30F9003
:10080000CF91DF910895DF93CF930F92CDB7DEB7ED
:1008100000008BE290E0FC0180818823D4F78CE219
:1008200090E0FC018081898389810F90CF91DF91D5
:100830000895DF93CF9300D0CDB7DEB79A83898335
:100840000BC089819A81FC0180810E94DE0389812D
:100850009A8101969A83898389819A81FC0180819A
:10086000882379F70F900F90CF91DF910895991B0E
:1008700079E004C0991F961708F0961B881F7A9597
:0A088000C9F780950895F894FFCFA2
:10088A0053554E004D4F4E005455450057454400B0
:10089A0054485500465249005341540060006400D0
:1008AA0068006C0070007400780020202000706DD1
:1008BA0000616D000A0D0053656C656374206D6FED
:1008CA0064650A0D2031292031326872200A0D2010
:1008DA0032292032346872000A0D456E746572201E
:1008EA006872000A0D456E746572200A0D312E6118
:1008FA006D0A0D20322E706D2000456E74657220CF
:10090A007468652074696D65207365636F6E6473BE
:10091A002026206D696E75746573202853533A4DED
:10092A004D2900456E7465722074686520446179AA
:10093A00202830312D303729202620446174652043
:0A094A002844444D4D59592900007E
:00000001FF
